{
  "address": "0x56DE001f5BB7D8F6cb197C719D6397d6B840Bb3D",
  "abi": [
    {
      "inputs": [
        {
          "internalType": "string",
          "name": "name_",
          "type": "string"
        },
        {
          "internalType": "string",
          "name": "symbol_",
          "type": "string"
        },
        {
          "internalType": "uint8",
          "name": "decimals_",
          "type": "uint8"
        }
      ],
      "stateMutability": "nonpayable",
      "type": "constructor"
    },
    {
      "inputs": [
        {
          "internalType": "address",
          "name": "spender",
          "type": "address"
        },
        {
          "internalType": "uint256",
          "name": "allowance",
          "type": "uint256"
        },
        {
          "internalType": "uint256",
          "name": "needed",
          "type": "uint256"
        }
      ],
      "name": "ERC20InsufficientAllowance",
      "type": "error"
    },
    {
      "inputs": [
        {
          "internalType": "address",
          "name": "sender",
          "type": "address"
        },
        {
          "internalType": "uint256",
          "name": "balance",
          "type": "uint256"
        },
        {
          "internalType": "uint256",
          "name": "needed",
          "type": "uint256"
        }
      ],
      "name": "ERC20InsufficientBalance",
      "type": "error"
    },
    {
      "inputs": [
        {
          "internalType": "address",
          "name": "approver",
          "type": "address"
        }
      ],
      "name": "ERC20InvalidApprover",
      "type": "error"
    },
    {
      "inputs": [
        {
          "internalType": "address",
          "name": "receiver",
          "type": "address"
        }
      ],
      "name": "ERC20InvalidReceiver",
      "type": "error"
    },
    {
      "inputs": [
        {
          "internalType": "address",
          "name": "sender",
          "type": "address"
        }
      ],
      "name": "ERC20InvalidSender",
      "type": "error"
    },
    {
      "inputs": [
        {
          "internalType": "address",
          "name": "spender",
          "type": "address"
        }
      ],
      "name": "ERC20InvalidSpender",
      "type": "error"
    },
    {
      "inputs": [
        {
          "internalType": "address",
          "name": "owner",
          "type": "address"
        }
      ],
      "name": "OwnableInvalidOwner",
      "type": "error"
    },
    {
      "inputs": [
        {
          "internalType": "address",
          "name": "account",
          "type": "address"
        }
      ],
      "name": "OwnableUnauthorizedAccount",
      "type": "error"
    },
    {
      "anonymous": false,
      "inputs": [
        {
          "indexed": true,
          "internalType": "address",
          "name": "owner",
          "type": "address"
        },
        {
          "indexed": true,
          "internalType": "address",
          "name": "spender",
          "type": "address"
        },
        {
          "indexed": false,
          "internalType": "uint256",
          "name": "value",
          "type": "uint256"
        }
      ],
      "name": "Approval",
      "type": "event"
    },
    {
      "anonymous": false,
      "inputs": [
        {
          "indexed": true,
          "internalType": "address",
          "name": "previousOwner",
          "type": "address"
        },
        {
          "indexed": true,
          "internalType": "address",
          "name": "newOwner",
          "type": "address"
        }
      ],
      "name": "OwnershipTransferred",
      "type": "event"
    },
    {
      "anonymous": false,
      "inputs": [
        {
          "indexed": true,
          "internalType": "address",
          "name": "from",
          "type": "address"
        },
        {
          "indexed": true,
          "internalType": "address",
          "name": "to",
          "type": "address"
        },
        {
          "indexed": false,
          "internalType": "uint256",
          "name": "value",
          "type": "uint256"
        }
      ],
      "name": "Transfer",
      "type": "event"
    },
    {
      "inputs": [
        {
          "internalType": "address",
          "name": "owner",
          "type": "address"
        },
        {
          "internalType": "address",
          "name": "spender",
          "type": "address"
        }
      ],
      "name": "allowance",
      "outputs": [
        {
          "internalType": "uint256",
          "name": "",
          "type": "uint256"
        }
      ],
      "stateMutability": "view",
      "type": "function"
    },
    {
      "inputs": [
        {
          "internalType": "address",
          "name": "spender",
          "type": "address"
        },
        {
          "internalType": "uint256",
          "name": "value",
          "type": "uint256"
        }
      ],
      "name": "approve",
      "outputs": [
        {
          "internalType": "bool",
          "name": "",
          "type": "bool"
        }
      ],
      "stateMutability": "nonpayable",
      "type": "function"
    },
    {
      "inputs": [
        {
          "internalType": "address",
          "name": "spender",
          "type": "address"
        },
        {
          "internalType": "uint256",
          "name": "amount",
          "type": "uint256"
        },
        {
          "internalType": "bytes",
          "name": "data",
          "type": "bytes"
        }
      ],
      "name": "approveAndCall",
      "outputs": [
        {
          "internalType": "bool",
          "name": "",
          "type": "bool"
        }
      ],
      "stateMutability": "nonpayable",
      "type": "function"
    },
    {
      "inputs": [
        {
          "internalType": "address",
          "name": "account",
          "type": "address"
        }
      ],
      "name": "balanceOf",
      "outputs": [
        {
          "internalType": "uint256",
          "name": "",
          "type": "uint256"
        }
      ],
      "stateMutability": "view",
      "type": "function"
    },
    {
      "inputs": [
        {
          "internalType": "address",
          "name": "from",
          "type": "address"
        },
        {
          "internalType": "uint256",
          "name": "amount",
          "type": "uint256"
        }
      ],
      "name": "burn",
      "outputs": [],
      "stateMutability": "nonpayable",
      "type": "function"
    },
    {
      "inputs": [],
      "name": "decimals",
      "outputs": [
        {
          "internalType": "uint8",
          "name": "",
          "type": "uint8"
        }
      ],
      "stateMutability": "view",
      "type": "function"
    },
    {
      "inputs": [
        {
          "internalType": "address",
          "name": "to",
          "type": "address"
        },
        {
          "internalType": "uint256",
          "name": "amount",
          "type": "uint256"
        }
      ],
      "name": "mint",
      "outputs": [],
      "stateMutability": "nonpayable",
      "type": "function"
    },
    {
      "inputs": [],
      "name": "name",
      "outputs": [
        {
          "internalType": "string",
          "name": "",
          "type": "string"
        }
      ],
      "stateMutability": "view",
      "type": "function"
    },
    {
      "inputs": [],
      "name": "owner",
      "outputs": [
        {
          "internalType": "address",
          "name": "",
          "type": "address"
        }
      ],
      "stateMutability": "view",
      "type": "function"
    },
    {
      "inputs": [],
      "name": "renounceOwnership",
      "outputs": [],
      "stateMutability": "nonpayable",
      "type": "function"
    },
    {
      "inputs": [],
      "name": "symbol",
      "outputs": [
        {
          "internalType": "string",
          "name": "",
          "type": "string"
        }
      ],
      "stateMutability": "view",
      "type": "function"
    },
    {
      "inputs": [],
      "name": "totalSupply",
      "outputs": [
        {
          "internalType": "uint256",
          "name": "",
          "type": "uint256"
        }
      ],
      "stateMutability": "view",
      "type": "function"
    },
    {
      "inputs": [
        {
          "internalType": "address",
          "name": "to",
          "type": "address"
        },
        {
          "internalType": "uint256",
          "name": "value",
          "type": "uint256"
        }
      ],
      "name": "transfer",
      "outputs": [
        {
          "internalType": "bool",
          "name": "",
          "type": "bool"
        }
      ],
      "stateMutability": "nonpayable",
      "type": "function"
    },
    {
      "inputs": [
        {
          "internalType": "address",
          "name": "from",
          "type": "address"
        },
        {
          "internalType": "address",
          "name": "to",
          "type": "address"
        },
        {
          "internalType": "uint256",
          "name": "value",
          "type": "uint256"
        }
      ],
      "name": "transferFrom",
      "outputs": [
        {
          "internalType": "bool",
          "name": "",
          "type": "bool"
        }
      ],
      "stateMutability": "nonpayable",
      "type": "function"
    },
    {
      "inputs": [
        {
          "internalType": "address",
          "name": "newOwner",
          "type": "address"
        }
      ],
      "name": "transferOwnership",
      "outputs": [],
      "stateMutability": "nonpayable",
      "type": "function"
    },
    {
      "inputs": [
        {
          "internalType": "address",
          "name": "recipient",
          "type": "address"
        },
        {
          "internalType": "uint256",
          "name": "amount",
          "type": "uint256"
        },
        {
          "internalType": "uint256",
          "name": "feeBps",
          "type": "uint256"
        }
      ],
      "name": "transferWithFee",
      "outputs": [
        {
          "internalType": "bool",
          "name": "",
          "type": "bool"
        }
      ],
      "stateMutability": "nonpayable",
      "type": "function"
    }
  ],
  "transactionHash": "0x84e766cb249d18787ea38413376497f5fc0ebe5652a7d8ed7e03219d300c8c85",
  "args": [
    "Wrapped BTC",
    "WBTC",
    8
  ],
  "numDeployments": 1,
  "solcInputHash": "3128229626ded0042f0ff517fbdb2bf6",
  "bytecode": "0x608060405234801561001057600080fd5b50604051611fb6380380611fb683398181016040528101906100329190610370565b3383838160039081610044919061061c565b508060049081610054919061061c565b505050600073ffffffffffffffffffffffffffffffffffffffff168173ffffffffffffffffffffffffffffffffffffffff16036100c95760006040517f1e4fbdf70000000000000000000000000000000000000000000000000000000081526004016100c0919061072f565b60405180910390fd5b6100d8816100fc60201b60201c565b5080600560146101000a81548160ff021916908360ff16021790555050505061074a565b6000600560009054906101000a900473ffffffffffffffffffffffffffffffffffffffff16905081600560006101000a81548173ffffffffffffffffffffffffffffffffffffffff021916908373ffffffffffffffffffffffffffffffffffffffff1602179055508173ffffffffffffffffffffffffffffffffffffffff168173ffffffffffffffffffffffffffffffffffffffff167f8be0079c531659141344cd1fd0a4f28419497f9722a3daafe3b4186f6b6457e060405160405180910390a35050565b6000604051905090565b600080fd5b600080fd5b600080fd5b600080fd5b6000601f19601f8301169050919050565b7f4e487b7100000000000000000000000000000000000000000000000000000000600052604160045260246000fd5b610229826101e0565b810181811067ffffffffffffffff82111715610248576102476101f1565b5b80604052505050565b600061025b6101c2565b90506102678282610220565b919050565b600067ffffffffffffffff821115610287576102866101f1565b5b610290826101e0565b9050602081019050919050565b60005b838110156102bb5780820151818401526020810190506102a0565b60008484015250505050565b60006102da6102d58461026c565b610251565b9050828152602081018484840111156102f6576102f56101db565b5b61030184828561029d565b509392505050565b600082601f83011261031e5761031d6101d6565b5b815161032e8482602086016102c7565b91505092915050565b600060ff82169050919050565b61034d81610337565b811461035857600080fd5b50565b60008151905061036a81610344565b92915050565b600080600060608486031215610389576103886101cc565b5b600084015167ffffffffffffffff8111156103a7576103a66101d1565b5b6103b386828701610309565b935050602084015167ffffffffffffffff8111156103d4576103d36101d1565b5b6103e086828701610309565b92505060406103f18682870161035b565b9150509250925092565b600081519050919050565b7f4e487b7100000000000000000000000000000000000000000000000000000000600052602260045260246000fd5b6000600282049050600182168061044d57607f821691505b6020821081036104605761045f610406565b5b50919050565b60008190508160005260206000209050919050565b60006020601f8301049050919050565b600082821b905092915050565b6000600883026104c87fffffffffffffffffffffffffffffffffffffffffffffffffffffffffffffffff8261048b565b6104d2868361048b565b95508019841693508086168417925050509392505050565b6000819050919050565b6000819050919050565b600061051961051461050f846104ea565b6104f4565b6104ea565b9050919050565b6000819050919050565b610533836104fe565b61054761053f82610520565b848454610498565b825550505050565b600090565b61055c61054f565b61056781848461052a565b505050565b5b8181101561058b57610580600082610554565b60018101905061056d565b5050565b601f8211156105d0576105a181610466565b6105aa8461047b565b810160208510156105b9578190505b6105cd6105c58561047b565b83018261056c565b50505b505050565b600082821c905092915050565b60006105f3600019846008026105d5565b1980831691505092915050565b600061060c83836105e2565b9150826002028217905092915050565b610625826103fb565b67ffffffffffffffff81111561063e5761063d6101f1565b5b6106488254610435565b61065382828561058f565b600060209050601f8311600181146106865760008415610674578287015190505b61067e8582610600565b8655506106e6565b601f19841661069486610466565b60005b828110156106bc57848901518255600182019150602085019450602081019050610697565b868310156106d957848901516106d5601f8916826105e2565b8355505b6001600288020188555050505b505050505050565b600073ffffffffffffffffffffffffffffffffffffffff82169050919050565b6000610719826106ee565b9050919050565b6107298161070e565b82525050565b60006020820190506107446000830184610720565b92915050565b61185d806107596000396000f3fe608060405234801561001057600080fd5b50600436106101005760003560e01c8063715018a611610097578063a9059cbb11610066578063a9059cbb1461029d578063cae9ca51146102cd578063dd62ed3e146102fd578063f2fde38b1461032d57610100565b8063715018a61461023b5780638da5cb5b1461024557806395d89b41146102635780639dc29fac1461028157610100565b8063313ce567116100d3578063313ce567146101a157806340c10f19146101bf57806351355362146101db57806370a082311461020b57610100565b806306fdde0314610105578063095ea7b31461012357806318160ddd1461015357806323b872dd14610171575b600080fd5b61010d610349565b60405161011a919061109f565b60405180910390f35b61013d60048036038101906101389190611169565b6103db565b60405161014a91906111c4565b60405180910390f35b61015b6103fe565b60405161016891906111ee565b60405180910390f35b61018b60048036038101906101869190611209565b610408565b60405161019891906111c4565b60405180910390f35b6101a9610437565b6040516101b69190611278565b60405180910390f35b6101d960048036038101906101d49190611169565b61044e565b005b6101f560048036038101906101f09190611293565b610464565b60405161020291906111c4565b60405180910390f35b610225600480360381019061022091906112e6565b6104fb565b60405161023291906111ee565b60405180910390f35b610243610543565b005b61024d610557565b60405161025a9190611322565b60405180910390f35b61026b610581565b604051610278919061109f565b60405180910390f35b61029b60048036038101906102969190611169565b610613565b005b6102b760048036038101906102b29190611169565b610629565b6040516102c491906111c4565b60405180910390f35b6102e760048036038101906102e29190611472565b61064c565b6040516102f491906111c4565b60405180910390f35b610317600480360381019061031291906114e1565b610712565b60405161032491906111ee565b60405180910390f35b610347600480360381019061034291906112e6565b610799565b005b60606003805461035890611550565b80601f016020809104026020016040519081016040528092919081815260200182805461038490611550565b80156103d15780601f106103a6576101008083540402835291602001916103d1565b820191906000526020600020905b8154815290600101906020018083116103b457829003601f168201915b5050505050905090565b6000806103e661081f565b90506103f3818585610827565b600191505092915050565b6000600254905090565b60008061041361081f565b9050610420858285610839565b61042b8585856108ce565b60019150509392505050565b6000600560149054906101000a900460ff16905090565b6104566109c2565b6104608282610a49565b5050565b600061271082106104aa576040517f08c379a00000000000000000000000000000000000000000000000000000000081526004016104a1906115cd565b60405180910390fd5b600061271083856104bb919061161c565b6104c5919061168d565b90506104dd338683876104d891906116be565b6108ce565b6104ef336104e9610557565b836108ce565b60019150509392505050565b60008060008373ffffffffffffffffffffffffffffffffffffffff1673ffffffffffffffffffffffffffffffffffffffff168152602001908152602001600020549050919050565b61054b6109c2565b6105556000610acb565b565b6000600560009054906101000a900473ffffffffffffffffffffffffffffffffffffffff16905090565b60606004805461059090611550565b80601f01602080910402602001604051908101604052809291908181526020018280546105bc90611550565b80156106095780601f106105de57610100808354040283529160200191610609565b820191906000526020600020905b8154815290600101906020018083116105ec57829003601f168201915b5050505050905090565b61061b6109c2565b6106258282610b91565b5050565b60008061063461081f565b90506106418185856108ce565b600191505092915050565b600061065884846103db565b5060008473ffffffffffffffffffffffffffffffffffffffff16836040516106809190611739565b6000604051808303816000865af19150503d80600081146106bd576040519150601f19603f3d011682016040523d82523d6000602084013e6106c2565b606091505b5050905080610706576040517f08c379a00000000000000000000000000000000000000000000000000000000081526004016106fd9061179c565b60405180910390fd5b60019150509392505050565b6000600160008473ffffffffffffffffffffffffffffffffffffffff1673ffffffffffffffffffffffffffffffffffffffff16815260200190815260200160002060008373ffffffffffffffffffffffffffffffffffffffff1673ffffffffffffffffffffffffffffffffffffffff16815260200190815260200160002054905092915050565b6107a16109c2565b600073ffffffffffffffffffffffffffffffffffffffff168173ffffffffffffffffffffffffffffffffffffffff16036108135760006040517f1e4fbdf700000000000000000000000000000000000000000000000000000000815260040161080a9190611322565b60405180910390fd5b61081c81610acb565b50565b600033905090565b6108348383836001610c13565b505050565b60006108458484610712565b90507fffffffffffffffffffffffffffffffffffffffffffffffffffffffffffffffff8110156108c857818110156108b8578281836040517ffb8f41b20000000000000000000000000000000000000000000000000000000081526004016108af939291906117bc565b60405180910390fd5b6108c784848484036000610c13565b5b50505050565b600073ffffffffffffffffffffffffffffffffffffffff168373ffffffffffffffffffffffffffffffffffffffff16036109405760006040517f96c6fd1e0000000000000000000000000000000000000000000000000000000081526004016109379190611322565b60405180910390fd5b600073ffffffffffffffffffffffffffffffffffffffff168273ffffffffffffffffffffffffffffffffffffffff16036109b25760006040517fec442f050000000000000000000000000000000000000000000000000000000081526004016109a99190611322565b60405180910390fd5b6109bd838383610dea565b505050565b6109ca61081f565b73ffffffffffffffffffffffffffffffffffffffff166109e8610557565b73ffffffffffffffffffffffffffffffffffffffff1614610a4757610a0b61081f565b6040517f118cdaa7000000000000000000000000000000000000000000000000000000008152600401610a3e9190611322565b60405180910390fd5b565b600073ffffffffffffffffffffffffffffffffffffffff168273ffffffffffffffffffffffffffffffffffffffff1603610abb5760006040517fec442f05000000000000000000000000000000000000000000000000000000008152600401610ab29190611322565b60405180910390fd5b610ac760008383610dea565b5050565b6000600560009054906101000a900473ffffffffffffffffffffffffffffffffffffffff16905081600560006101000a81548173ffffffffffffffffffffffffffffffffffffffff021916908373ffffffffffffffffffffffffffffffffffffffff1602179055508173ffffffffffffffffffffffffffffffffffffffff168173ffffffffffffffffffffffffffffffffffffffff167f8be0079c531659141344cd1fd0a4f28419497f9722a3daafe3b4186f6b6457e060405160405180910390a35050565b600073ffffffffffffffffffffffffffffffffffffffff168273ffffffffffffffffffffffffffffffffffffffff1603610c035760006040517f96c6fd1e000000000000000000000000000000000000000000000000000000008152600401610bfa9190611322565b60405180910390fd5b610c0f82600083610dea565b5050565b600073ffffffffffffffffffffffffffffffffffffffff168473ffffffffffffffffffffffffffffffffffffffff1603610c855760006040517fe602df05000000000000000000000000000000000000000000000000000000008152600401610c7c9190611322565b60405180910390fd5b600073ffffffffffffffffffffffffffffffffffffffff168373ffffffffffffffffffffffffffffffffffffffff1603610cf75760006040517f94280d62000000000000000000000000000000000000000000000000000000008152600401610cee9190611322565b60405180910390fd5b81600160008673ffffffffffffffffffffffffffffffffffffffff1673ffffffffffffffffffffffffffffffffffffffff16815260200190815260200160002060008573ffffffffffffffffffffffffffffffffffffffff1673ffffffffffffffffffffffffffffffffffffffff168152602001908152602001600020819055508015610de4578273ffffffffffffffffffffffffffffffffffffffff168473ffffffffffffffffffffffffffffffffffffffff167f8c5be1e5ebec7d5bd14f71427d1e84f3dd0314c0f7b2291e5b200ac8c7c3b92584604051610ddb91906111ee565b60405180910390a35b50505050565b600073ffffffffffffffffffffffffffffffffffffffff168373ffffffffffffffffffffffffffffffffffffffff1603610e3c578060026000828254610e3091906117f3565b92505081905550610f0f565b60008060008573ffffffffffffffffffffffffffffffffffffffff1673ffffffffffffffffffffffffffffffffffffffff16815260200190815260200160002054905081811015610ec8578381836040517fe450d38c000000000000000000000000000000000000000000000000000000008152600401610ebf939291906117bc565b60405180910390fd5b8181036000808673ffffffffffffffffffffffffffffffffffffffff1673ffffffffffffffffffffffffffffffffffffffff16815260200190815260200160002081905550505b600073ffffffffffffffffffffffffffffffffffffffff168273ffffffffffffffffffffffffffffffffffffffff1603610f585780600260008282540392505081905550610fa5565b806000808473ffffffffffffffffffffffffffffffffffffffff1673ffffffffffffffffffffffffffffffffffffffff168152602001908152602001600020600082825401925050819055505b8173ffffffffffffffffffffffffffffffffffffffff168373ffffffffffffffffffffffffffffffffffffffff167fddf252ad1be2c89b69c2b068fc378daa952ba7f163c4a11628f55a4df523b3ef8360405161100291906111ee565b60405180910390a3505050565b600081519050919050565b600082825260208201905092915050565b60005b8381101561104957808201518184015260208101905061102e565b60008484015250505050565b6000601f19601f8301169050919050565b60006110718261100f565b61107b818561101a565b935061108b81856020860161102b565b61109481611055565b840191505092915050565b600060208201905081810360008301526110b98184611066565b905092915050565b6000604051905090565b600080fd5b600080fd5b600073ffffffffffffffffffffffffffffffffffffffff82169050919050565b6000611100826110d5565b9050919050565b611110816110f5565b811461111b57600080fd5b50565b60008135905061112d81611107565b92915050565b6000819050919050565b61114681611133565b811461115157600080fd5b50565b6000813590506111638161113d565b92915050565b600080604083850312156111805761117f6110cb565b5b600061118e8582860161111e565b925050602061119f85828601611154565b9150509250929050565b60008115159050919050565b6111be816111a9565b82525050565b60006020820190506111d960008301846111b5565b92915050565b6111e881611133565b82525050565b600060208201905061120360008301846111df565b92915050565b600080600060608486031215611222576112216110cb565b5b60006112308682870161111e565b93505060206112418682870161111e565b925050604061125286828701611154565b9150509250925092565b600060ff82169050919050565b6112728161125c565b82525050565b600060208201905061128d6000830184611269565b92915050565b6000806000606084860312156112ac576112ab6110cb565b5b60006112ba8682870161111e565b93505060206112cb86828701611154565b92505060406112dc86828701611154565b9150509250925092565b6000602082840312156112fc576112fb6110cb565b5b600061130a8482850161111e565b91505092915050565b61131c816110f5565b82525050565b60006020820190506113376000830184611313565b92915050565b600080fd5b600080fd5b7f4e487b7100000000000000000000000000000000000000000000000000000000600052604160045260246000fd5b61137f82611055565b810181811067ffffffffffffffff8211171561139e5761139d611347565b5b80604052505050565b60006113b16110c1565b90506113bd8282611376565b919050565b600067ffffffffffffffff8211156113dd576113dc611347565b5b6113e682611055565b9050602081019050919050565b82818337600083830152505050565b6000611415611410846113c2565b6113a7565b90508281526020810184848401111561143157611430611342565b5b61143c8482856113f3565b509392505050565b600082601f8301126114595761145861133d565b5b8135611469848260208601611402565b91505092915050565b60008060006060848603121561148b5761148a6110cb565b5b60006114998682870161111e565b93505060206114aa86828701611154565b925050604084013567ffffffffffffffff8111156114cb576114ca6110d0565b5b6114d786828701611444565b9150509250925092565b600080604083850312156114f8576114f76110cb565b5b60006115068582860161111e565b92505060206115178582860161111e565b9150509250929050565b7f4e487b7100000000000000000000000000000000000000000000000000000000600052602260045260246000fd5b6000600282049050600182168061156857607f821691505b60208210810361157b5761157a611521565b5b50919050565b7f46656520746f6f20686967680000000000000000000000000000000000000000600082015250565b60006115b7600c8361101a565b91506115c282611581565b602082019050919050565b600060208201905081810360008301526115e6816115aa565b9050919050565b7f4e487b7100000000000000000000000000000000000000000000000000000000600052601160045260246000fd5b600061162782611133565b915061163283611133565b925082820261164081611133565b91508282048414831517611657576116566115ed565b5b5092915050565b7f4e487b7100000000000000000000000000000000000000000000000000000000600052601260045260246000fd5b600061169882611133565b91506116a383611133565b9250826116b3576116b261165e565b5b828204905092915050565b60006116c982611133565b91506116d483611133565b92508282039050818111156116ec576116eb6115ed565b5b92915050565b600081519050919050565b600081905092915050565b6000611713826116f2565b61171d81856116fd565b935061172d81856020860161102b565b80840191505092915050565b60006117458284611708565b915081905092915050565b7f43616c6c206661696c6564000000000000000000000000000000000000000000600082015250565b6000611786600b8361101a565b915061179182611750565b602082019050919050565b600060208201905081810360008301526117b581611779565b9050919050565b60006060820190506117d16000830186611313565b6117de60208301856111df565b6117eb60408301846111df565b949350505050565b60006117fe82611133565b915061180983611133565b9250828201905080821115611821576118206115ed565b5b9291505056fea26469706673582212201fe1febdad9998f089fa4058dc43f59642d75c7da850529a5fa8e4357d7ab48764736f6c634300081c0033",
  "devdoc": {
    "details": "A mock ERC20 token with minting and burning capabilities for testing purposes",
    "errors": {
      "ERC20InsufficientAllowance(address,uint256,uint256)": [
        {
          "details": "Indicates a failure with the `spender`s `allowance`. Used in transfers.",
          "params": {
            "allowance": "Amount of tokens a `spender` is allowed to operate with.",
            "needed": "Minimum amount required to perform a transfer.",
            "spender": "Address that may be allowed to operate on tokens without being their owner."
          }
        }
      ],
      "ERC20InsufficientBalance(address,uint256,uint256)": [
        {
          "details": "Indicates an error related to the current `balance` of a `sender`. Used in transfers.",
          "params": {
            "balance": "Current balance for the interacting account.",
            "needed": "Minimum amount required to perform a transfer.",
            "sender": "Address whose tokens are being transferred."
          }
        }
      ],
      "ERC20InvalidApprover(address)": [
        {
          "details": "Indicates a failure with the `approver` of a token to be approved. Used in approvals.",
          "params": {
            "approver": "Address initiating an approval operation."
          }
        }
      ],
      "ERC20InvalidReceiver(address)": [
        {
          "details": "Indicates a failure with the token `receiver`. Used in transfers.",
          "params": {
            "receiver": "Address to which tokens are being transferred."
          }
        }
      ],
      "ERC20InvalidSender(address)": [
        {
          "details": "Indicates a failure with the token `sender`. Used in transfers.",
          "params": {
            "sender": "Address whose tokens are being transferred."
          }
        }
      ],
      "ERC20InvalidSpender(address)": [
        {
          "details": "Indicates a failure with the `spender` to be approved. Used in approvals.",
          "params": {
            "spender": "Address that may be allowed to operate on tokens without being their owner."
          }
        }
      ],
      "OwnableInvalidOwner(address)": [
        {
          "details": "The owner is not a valid owner account. (eg. `address(0)`)"
        }
      ],
      "OwnableUnauthorizedAccount(address)": [
        {
          "details": "The caller account is not authorized to perform an operation."
        }
      ]
    },
    "events": {
      "Approval(address,address,uint256)": {
        "details": "Emitted when the allowance of a `spender` for an `owner` is set by a call to {approve}. `value` is the new allowance."
      },
      "Transfer(address,address,uint256)": {
        "details": "Emitted when `value` tokens are moved from one account (`from`) to another (`to`). Note that `value` may be zero."
      }
    },
    "kind": "dev",
    "methods": {
      "allowance(address,address)": {
        "details": "See {IERC20-allowance}."
      },
      "approve(address,uint256)": {
        "details": "See {IERC20-approve}. NOTE: If `value` is the maximum `uint256`, the allowance is not updated on `transferFrom`. This is semantically equivalent to an infinite approval. Requirements: - `spender` cannot be the zero address."
      },
      "approveAndCall(address,uint256,bytes)": {
        "details": "Approves and then calls another contract in one tx",
        "params": {
          "amount": "The amount to approve",
          "data": "The calldata for the external call",
          "spender": "The spender address"
        }
      },
      "balanceOf(address)": {
        "details": "See {IERC20-balanceOf}."
      },
      "burn(address,uint256)": {
        "details": "Burns tokens from an address",
        "params": {
          "amount": "The amount to burn",
          "from": "The address to burn from"
        }
      },
      "decimals()": {
        "details": "Overrides decimals() for tokens with non-18 decimal places"
      },
      "mint(address,uint256)": {
        "details": "Mints tokens to an address",
        "params": {
          "amount": "The amount to mint",
          "to": "The address to mint to"
        }
      },
      "name()": {
        "details": "Returns the name of the token."
      },
      "owner()": {
        "details": "Returns the address of the current owner."
      },
      "renounceOwnership()": {
        "details": "Leaves the contract without owner. It will not be possible to call `onlyOwner` functions. Can only be called by the current owner. NOTE: Renouncing ownership will leave the contract without an owner, thereby disabling any functionality that is only available to the owner."
      },
      "symbol()": {
        "details": "Returns the symbol of the token, usually a shorter version of the name."
      },
      "totalSupply()": {
        "details": "See {IERC20-totalSupply}."
      },
      "transfer(address,uint256)": {
        "details": "See {IERC20-transfer}. Requirements: - `to` cannot be the zero address. - the caller must have a balance of at least `value`."
      },
      "transferFrom(address,address,uint256)": {
        "details": "See {IERC20-transferFrom}. Skips emitting an {Approval} event indicating an allowance update. This is not required by the ERC. See {xref-ERC20-_approve-address-address-uint256-bool-}[_approve]. NOTE: Does not update the allowance if the current allowance is the maximum `uint256`. Requirements: - `from` and `to` cannot be the zero address. - `from` must have a balance of at least `value`. - the caller must have allowance for ``from``'s tokens of at least `value`."
      },
      "transferOwnership(address)": {
        "details": "Transfers ownership of the contract to a new account (`newOwner`). Can only be called by the current owner."
      },
      "transferWithFee(address,uint256,uint256)": {
        "details": "Simulates token transfer with fee (for testing fee-on-transfer tokens)",
        "params": {
          "amount": "The amount to transfer",
          "feeBps": "The fee in basis points (e.g., 30 = 0.3%)",
          "recipient": "The recipient address"
        }
      }
    },
    "title": "ERC20Mock",
    "version": 1
  },
  "userdoc": {
    "kind": "user",
    "methods": {},
    "version": 1
  },
  "storageLayout": {
    "storage": [
      {
        "astId": 339,
        "contract": "contracts/ERC20Mock.sol:ERC20Mock",
        "label": "_balances",
        "offset": 0,
        "slot": "0",
        "type": "t_mapping(t_address,t_uint256)"
      },
      {
        "astId": 345,
        "contract": "contracts/ERC20Mock.sol:ERC20Mock",
        "label": "_allowances",
        "offset": 0,
        "slot": "1",
        "type": "t_mapping(t_address,t_mapping(t_address,t_uint256))"
      },
      {
        "astId": 347,
        "contract": "contracts/ERC20Mock.sol:ERC20Mock",
        "label": "_totalSupply",
        "offset": 0,
        "slot": "2",
        "type": "t_uint256"
      },
      {
        "astId": 349,
        "contract": "contracts/ERC20Mock.sol:ERC20Mock",
        "label": "_name",
        "offset": 0,
        "slot": "3",
        "type": "t_string_storage"
      },
      {
        "astId": 351,
        "contract": "contracts/ERC20Mock.sol:ERC20Mock",
        "label": "_symbol",
        "offset": 0,
        "slot": "4",
        "type": "t_string_storage"
      },
      {
        "astId": 8,
        "contract": "contracts/ERC20Mock.sol:ERC20Mock",
        "label": "_owner",
        "offset": 0,
        "slot": "5",
        "type": "t_address"
      },
      {
        "astId": 7319,
        "contract": "contracts/ERC20Mock.sol:ERC20Mock",
        "label": "_decimals",
        "offset": 20,
        "slot": "5",
        "type": "t_uint8"
      }
    ],
    "types": {
      "t_address": {
        "encoding": "inplace",
        "label": "address",
        "numberOfBytes": "20"
      },
      "t_mapping(t_address,t_mapping(t_address,t_uint256))": {
        "encoding": "mapping",
        "key": "t_address",
        "label": "mapping(address => mapping(address => uint256))",
        "numberOfBytes": "32",
        "value": "t_mapping(t_address,t_uint256)"
      },
      "t_mapping(t_address,t_uint256)": {
        "encoding": "mapping",
        "key": "t_address",
        "label": "mapping(address => uint256)",
        "numberOfBytes": "32",
        "value": "t_uint256"
      },
      "t_string_storage": {
        "encoding": "bytes",
        "label": "string",
        "numberOfBytes": "32"
      },
      "t_uint256": {
        "encoding": "inplace",
        "label": "uint256",
        "numberOfBytes": "32"
      },
      "t_uint8": {
        "encoding": "inplace",
        "label": "uint8",
        "numberOfBytes": "1"
      }
    }
  }
}